{
  "contractName": "Evidence",
  "abi": [
    {
      "anonymous": false,
      "inputs": [
        {
          "indexed": true,
          "internalType": "int256",
          "name": "evid",
          "type": "int256"
        },
        {
          "indexed": false,
          "internalType": "string",
          "name": "name",
          "type": "string"
        },
        {
          "indexed": false,
          "internalType": "string",
          "name": "owner",
          "type": "string"
        },
        {
          "indexed": false,
          "internalType": "string",
          "name": "location",
          "type": "string"
        },
        {
          "indexed": false,
          "internalType": "string",
          "name": "myHash",
          "type": "string"
        },
        {
          "indexed": false,
          "internalType": "uint256",
          "name": "timestamp",
          "type": "uint256"
        }
      ],
      "name": "EvidenceUploaded",
      "type": "event"
    },
    {
      "anonymous": false,
      "inputs": [
        {
          "indexed": true,
          "internalType": "int256",
          "name": "evid",
          "type": "int256"
        },
        {
          "indexed": false,
          "internalType": "uint256",
          "name": "timestamp",
          "type": "uint256"
        }
      ],
      "name": "EvidenceVerified",
      "type": "event"
    },
    {
      "constant": true,
      "inputs": [
        {
          "internalType": "uint256",
          "name": "",
          "type": "uint256"
        }
      ],
      "name": "evds",
      "outputs": [
        {
          "internalType": "int256",
          "name": "evid",
          "type": "int256"
        },
        {
          "internalType": "string",
          "name": "name",
          "type": "string"
        },
        {
          "internalType": "string",
          "name": "owner",
          "type": "string"
        },
        {
          "internalType": "string",
          "name": "location",
          "type": "string"
        },
        {
          "internalType": "string",
          "name": "myHash",
          "type": "string"
        },
        {
          "internalType": "uint256",
          "name": "timestamp",
          "type": "uint256"
        }
      ],
      "payable": false,
      "stateMutability": "view",
      "type": "function"
    },
    {
      "constant": false,
      "inputs": [
        {
          "internalType": "int256",
          "name": "evid",
          "type": "int256"
        },
        {
          "internalType": "string",
          "name": "name",
          "type": "string"
        },
        {
          "internalType": "string",
          "name": "owner",
          "type": "string"
        },
        {
          "internalType": "string",
          "name": "location",
          "type": "string"
        },
        {
          "internalType": "string",
          "name": "myHash",
          "type": "string"
        }
      ],
      "name": "addEvidence",
      "outputs": [],
      "payable": false,
      "stateMutability": "nonpayable",
      "type": "function"
    },
    {
      "constant": true,
      "inputs": [
        {
          "internalType": "int256",
          "name": "evid",
          "type": "int256"
        }
      ],
      "name": "getEvidence",
      "outputs": [
        {
          "internalType": "string",
          "name": "name",
          "type": "string"
        },
        {
          "internalType": "string",
          "name": "owner",
          "type": "string"
        },
        {
          "internalType": "string",
          "name": "location",
          "type": "string"
        },
        {
          "internalType": "string",
          "name": "myHash",
          "type": "string"
        },
        {
          "internalType": "uint256",
          "name": "timestamp",
          "type": "uint256"
        }
      ],
      "payable": false,
      "stateMutability": "view",
      "type": "function"
    },
    {
      "constant": false,
      "inputs": [
        {
          "internalType": "int256",
          "name": "evid",
          "type": "int256"
        }
      ],
      "name": "verifyEvidence",
      "outputs": [],
      "payable": false,
      "stateMutability": "nonpayable",
      "type": "function"
    }
  ],
  "bytecode": "0x608060405234801561001057600080fd5b50611205806100206000396000f3fe608060405234801561001057600080fd5b506004361061004c5760003560e01c80630301e498146100515780634db3f4c61461024a578063f2b3f25314610278578063f7da3f5714610502575b600080fd5b61007d6004803603602081101561006757600080fd5b81019080803590602001909291905050506106f4565b604051808781526020018060200180602001806020018060200186815260200185810385528a818151815260200191508051906020019080838360005b838110156100d55780820151818401526020810190506100ba565b50505050905090810190601f1680156101025780820380516001836020036101000a031916815260200191505b50858103845289818151815260200191508051906020019080838360005b8381101561013b578082015181840152602081019050610120565b50505050905090810190601f1680156101685780820380516001836020036101000a031916815260200191505b50858103835288818151815260200191508051906020019080838360005b838110156101a1578082015181840152602081019050610186565b50505050905090810190601f1680156101ce5780820380516001836020036101000a031916815260200191505b50858103825287818151815260200191508051906020019080838360005b838110156102075780820151818401526020810190506101ec565b50505050905090810190601f1680156102345780820380516001836020036101000a031916815260200191505b509a505050505050505050505060405180910390f35b6102766004803603602081101561026057600080fd5b810190808035906020019092919050505061099d565b005b610500600480360360a081101561028e57600080fd5b8101908080359060200190929190803590602001906401000000008111156102b557600080fd5b8201836020820111156102c757600080fd5b803590602001918460018302840111640100000000831117156102e957600080fd5b91908080601f016020809104026020016040519081016040528093929190818152602001838380828437600081840152601f19601f8201169050808301925050505050505091929192908035906020019064010000000081111561034c57600080fd5b82018360208201111561035e57600080fd5b8035906020019184600183028401116401000000008311171561038057600080fd5b91908080601f016020809104026020016040519081016040528093929190818152602001838380828437600081840152601f19601f820116905080830192505050505050509192919290803590602001906401000000008111156103e357600080fd5b8201836020820111156103f557600080fd5b8035906020019184600183028401116401000000008311171561041757600080fd5b91908080601f016020809104026020016040519081016040528093929190818152602001838380828437600081840152601f19601f8201169050808301925050505050505091929192908035906020019064010000000081111561047a57600080fd5b82018360208201111561048c57600080fd5b803590602001918460018302840111640100000000831117156104ae57600080fd5b91908080601f016020809104026020016040519081016040528093929190818152602001838380828437600081840152601f19601f8201169050808301925050505050505091929192905050506109de565b005b61052e6004803603602081101561051857600080fd5b8101908080359060200190929190505050610cc8565b604051808060200180602001806020018060200186815260200185810385528a818151815260200191508051906020019080838360005b83811015610580578082015181840152602081019050610565565b50505050905090810190601f1680156105ad5780820380516001836020036101000a031916815260200191505b50858103845289818151815260200191508051906020019080838360005b838110156105e65780820151818401526020810190506105cb565b50505050905090810190601f1680156106135780820380516001836020036101000a031916815260200191505b50858103835288818151815260200191508051906020019080838360005b8381101561064c578082015181840152602081019050610631565b50505050905090810190601f1680156106795780820380516001836020036101000a031916815260200191505b50858103825287818151815260200191508051906020019080838360005b838110156106b2578082015181840152602081019050610697565b50505050905090810190601f1680156106df5780820380516001836020036101000a031916815260200191505b50995050505050505050505060405180910390f35b6000818154811061070157fe5b9060005260206000209060060201600091509050806000015490806001018054600181600116156101000203166002900480601f0160208091040260200160405190810160405280929190818152602001828054600181600116156101000203166002900480156107b35780601f10610788576101008083540402835291602001916107b3565b820191906000526020600020905b81548152906001019060200180831161079657829003601f168201915b505050505090806002018054600181600116156101000203166002900480601f0160208091040260200160405190810160405280929190818152602001828054600181600116156101000203166002900480156108515780601f1061082657610100808354040283529160200191610851565b820191906000526020600020905b81548152906001019060200180831161083457829003601f168201915b505050505090806003018054600181600116156101000203166002900480601f0160208091040260200160405190810160405280929190818152602001828054600181600116156101000203166002900480156108ef5780601f106108c4576101008083540402835291602001916108ef565b820191906000526020600020905b8154815290600101906020018083116108d257829003601f168201915b505050505090806004018054600181600116156101000203166002900480601f01602080910402602001604051908101604052809291908181526020018280546001816001161561010002031660029004801561098d5780601f106109625761010080835404028352916020019161098d565b820191906000526020600020905b81548152906001019060200180831161097057829003601f168201915b5050505050908060050154905086565b6000429050817f97e35081270ebcf319e06e4336421fb1412872cb6f89a7647b368a6d7789713b826040518082815260200191505060405180910390a25050565b60004290506109eb6110f5565b6040518060c0016040528088815260200187815260200186815260200185815260200184815260200183815250905060008190806001815401808255809150509060018203906000526020600020906006020160009091929091909150600082015181600001556020820151816001019080519060200190610a6e92919061112b565b506040820151816002019080519060200190610a8b92919061112b565b506060820151816003019080519060200190610aa892919061112b565b506080820151816004019080519060200190610ac592919061112b565b5060a08201518160050155505050867ffa4f2eef0df64a56c8533ca2a332ed9eef1e0030f73fc96a568a222d6b548fbc8787878787604051808060200180602001806020018060200186815260200185810385528a818151815260200191508051906020019080838360005b83811015610b4c578082015181840152602081019050610b31565b50505050905090810190601f168015610b795780820380516001836020036101000a031916815260200191505b50858103845289818151815260200191508051906020019080838360005b83811015610bb2578082015181840152602081019050610b97565b50505050905090810190601f168015610bdf5780820380516001836020036101000a031916815260200191505b50858103835288818151815260200191508051906020019080838360005b83811015610c18578082015181840152602081019050610bfd565b50505050905090810190601f168015610c455780820380516001836020036101000a031916815260200191505b50858103825287818151815260200191508051906020019080838360005b83811015610c7e578082015181840152602081019050610c63565b50505050905090810190601f168015610cab5780820380516001836020036101000a031916815260200191505b50995050505050505050505060405180910390a250505050505050565b606080606080600080600090505b600080549050811015610fff57610ceb6110f5565b60008281548110610cf857fe5b90600052602060002090600602016040518060c001604052908160008201548152602001600182018054600181600116156101000203166002900480601f016020809104026020016040519081016040528092919081815260200182805460018160011615610100020316600290048015610db45780601f10610d8957610100808354040283529160200191610db4565b820191906000526020600020905b815481529060010190602001808311610d9757829003601f168201915b50505050508152602001600282018054600181600116156101000203166002900480601f016020809104026020016040519081016040528092919081815260200182805460018160011615610100020316600290048015610e565780601f10610e2b57610100808354040283529160200191610e56565b820191906000526020600020905b815481529060010190602001808311610e3957829003601f168201915b50505050508152602001600382018054600181600116156101000203166002900480601f016020809104026020016040519081016040528092919081815260200182805460018160011615610100020316600290048015610ef85780601f10610ecd57610100808354040283529160200191610ef8565b820191906000526020600020905b815481529060010190602001808311610edb57829003601f168201915b50505050508152602001600482018054600181600116156101000203166002900480601f016020809104026020016040519081016040528092919081815260200182805460018160011615610100020316600290048015610f9a5780601f10610f6f57610100808354040283529160200191610f9a565b820191906000526020600020905b815481529060010190602001808311610f7d57829003601f168201915b5050505050815260200160058201548152505090508781600001511415610ff15780602001518160400151826060015183608001518460a001518494508393508292508191509650965096509650965050506110ec565b508080600101915050610cd6565b60006040518060400160405280600981526020017f4e6f7420466f756e640000000000000000000000000000000000000000000000815250906040518060400160405280600981526020017f4e6f7420466f756e640000000000000000000000000000000000000000000000815250906040518060400160405280600981526020017f4e6f7420466f756e640000000000000000000000000000000000000000000000815250906040518060400160405280600981526020017f4e6f7420466f756e6400000000000000000000000000000000000000000000008152509080905095509550955095509550505b91939590929450565b6040518060c001604052806000815260200160608152602001606081526020016060815260200160608152602001600081525090565b828054600181600116156101000203166002900490600052602060002090601f016020900481019282601f1061116c57805160ff191683800117855561119a565b8280016001018555821561119a579182015b8281111561119957825182559160200191906001019061117e565b5b5090506111a791906111ab565b5090565b6111cd91905b808211156111c95760008160009055506001016111b1565b5090565b9056fea265627a7a7231582045f939a20e513b288dc1080c9bfd03a897da4a47163b0fd5464e4bfb421ea53364736f6c63430005100032",
  "source": "pragma solidity ^0.5.16;\n\n// Creating a Smart Contract\ncontract Evidence {\n\n    // Structure of evidence\n    struct Evidence {\n        int evid;\n        string name;\n        string owner;\n        string location;\n        string myHash;\n        uint256 timestamp;\n    }\n\n    Evidence[] public evds;\n\n    // Events for logging\n    event EvidenceUploaded(\n        int indexed evid,\n        string name,\n        string owner,\n        string location,\n        string myHash,\n        uint256 timestamp\n    );\n\n    event EvidenceVerified(\n        int indexed evid,\n        uint256 timestamp\n    );\n\n    // Function to add evidence details\n    function addEvidence(\n        int evid,\n        string memory name,\n        string memory owner,\n        string memory location,\n        string memory myHash\n    ) public {\n        uint256 currentTimestamp = block.timestamp;\n        Evidence memory e = Evidence(evid, name, owner, location, myHash, currentTimestamp);\n        evds.push(e);\n\n        // Emit event\n        emit EvidenceUploaded(evid, name, owner, location, myHash, currentTimestamp);\n    }\n\n    // Function to get details of evidence\n    function getEvidence(\n        int evid\n    ) public view returns (\n        string memory name,\n        string memory owner,\n        string memory location,\n        string memory myHash,\n        uint256 timestamp\n    ) {\n        uint i;\n        for (i = 0; i < evds.length; i++) {\n            Evidence memory e = evds[i];\n\n            // Check for matching evidence ID\n            if (e.evid == evid) {\n                return (e.name, e.owner, e.location, e.myHash, e.timestamp);\n            }\n        }\n\n        // If evidence ID is not found, return default values\n        return (\"Not Found\", \"Not Found\", \"Not Found\", \"Not Found\", 0);\n    }\n\n    // Function to verify evidence (logs verification time)\n    function verifyEvidence(int evid) public {\n        uint256 currentTimestamp = block.timestamp;\n        emit EvidenceVerified(evid, currentTimestamp);\n    }\n}\n",
  "sourcePath": "C:\\Users\\chinm\\Desktop\\Newfolder3\\contracts\\Evidence.sol",
  "compiler": {
    "name": "solc",
    "version": "0.5.16+commit.9c3226ce.Emscripten.clang"
  },
  "schemaVersion": "3.4.16",
  "updatedAt": "2024-11-27T21:19:25.721Z",
  "devdoc": {
    "methods": {}
  },
  "userdoc": {
    "methods": {}
  }
}